{
  "contractName": "BookFactory",
  "abi": [
    {
      "inputs": [
        {
          "internalType": "address",
          "name": "owner",
          "type": "address"
        }
      ],
      "name": "getBooksByOwner",
      "outputs": [
        {
          "internalType": "uint256[]",
          "name": "",
          "type": "uint256[]"
        }
      ],
      "stateMutability": "view",
      "type": "function"
    },
    {
      "inputs": [
        {
          "internalType": "uint256",
          "name": "bookId",
          "type": "uint256"
        }
      ],
      "name": "getBookById",
      "outputs": [
        {
          "components": [
            {
              "internalType": "uint256",
              "name": "bookId",
              "type": "uint256"
            },
            {
              "internalType": "uint256",
              "name": "prevBookId",
              "type": "uint256"
            },
            {
              "internalType": "uint256",
              "name": "children",
              "type": "uint256"
            },
            {
              "internalType": "uint256",
              "name": "profit",
              "type": "uint256"
            },
            {
              "internalType": "address payable",
              "name": "owner",
              "type": "address"
            }
          ],
          "internalType": "struct BookFactory.Book",
          "name": "",
          "type": "tuple"
        }
      ],
      "stateMutability": "view",
      "type": "function"
    }
  ],
  "bytecode": "0x608060405234801561001057600080fd5b5061062b806100206000396000f3fe608060405234801561001057600080fd5b50600436106100365760003560e01c8063418b79ab1461003b5780635ff471141461006b575b600080fd5b610055600480360381019061005091906102e7565b61009b565b60405161006291906103cc565b60405180910390f35b61008560048036038101906100809190610425565b6101d0565b6040516100929190610501565b60405180910390f35b6100a3610267565b600060026000848152602001908152602001600020541415806100cc57506602c36280289c7182145b61010b576040517f08c379a0000000000000000000000000000000000000000000000000000000008152600401610102906105a6565b60405180910390fd5b6000600260008481526020019081526020016000205481548110610132576101316105c6565b5b90600052602060002090600502016040518060a0016040529081600082015481526020016001820154815260200160028201548152602001600382015481526020016004820160009054906101000a900473ffffffffffffffffffffffffffffffffffffffff1673ffffffffffffffffffffffffffffffffffffffff1673ffffffffffffffffffffffffffffffffffffffff16815250509050919050565b6060600160008373ffffffffffffffffffffffffffffffffffffffff1673ffffffffffffffffffffffffffffffffffffffff16815260200190815260200160002080548060200260200160405190810160405280929190818152602001828054801561025b57602002820191906000526020600020905b815481526020019060010190808311610247575b50505050509050919050565b6040518060a0016040528060008152602001600081526020016000815260200160008152602001600073ffffffffffffffffffffffffffffffffffffffff1681525090565b600080fd5b6000819050919050565b6102c4816102b1565b81146102cf57600080fd5b50565b6000813590506102e1816102bb565b92915050565b6000602082840312156102fd576102fc6102ac565b5b600061030b848285016102d2565b91505092915050565b61031d816102b1565b82525050565b600073ffffffffffffffffffffffffffffffffffffffff82169050919050565b600061034e82610323565b9050919050565b61035e81610343565b82525050565b60a08201600082015161037a6000850182610314565b50602082015161038d6020850182610314565b5060408201516103a06040850182610314565b5060608201516103b36060850182610314565b5060808201516103c66080850182610355565b50505050565b600060a0820190506103e16000830184610364565b92915050565b60006103f282610323565b9050919050565b610402816103e7565b811461040d57600080fd5b50565b60008135905061041f816103f9565b92915050565b60006020828403121561043b5761043a6102ac565b5b600061044984828501610410565b91505092915050565b600081519050919050565b600082825260208201905092915050565b6000819050602082019050919050565b600061048a8383610314565b60208301905092915050565b6000602082019050919050565b60006104ae82610452565b6104b8818561045d565b93506104c38361046e565b8060005b838110156104f45781516104db888261047e565b97506104e683610496565b9250506001810190506104c7565b5085935050505092915050565b6000602082019050818103600083015261051b81846104a3565b905092915050565b600082825260208201905092915050565b7f426f6f6b20776974682069642070726f7669646564206973206e6f7420666f7560008201527f6e642e0000000000000000000000000000000000000000000000000000000000602082015250565b6000610590602383610523565b915061059b82610534565b604082019050919050565b600060208201905081810360008301526105bf81610583565b9050919050565b7f4e487b7100000000000000000000000000000000000000000000000000000000600052603260045260246000fdfea2646970667358221220570e021cdcde9d57796a96760ef3c6160c6059842f726b82e570b6273601a4d364736f6c634300080a0033",
  "immutableReferences": {},
  "source": "// SPDX-License-Identifier: Apache License 2.0\r\n// Copyright 2021 Ra\r\n//\r\n// Licensed under the Apache License, Version 2.0 (the \"License\");\r\n// you may not use this file except in compliance with the License.\r\n// You may obtain a copy of the License at\r\n//\r\n// http://www.apache.org/licenses/LICENSE-2.0\r\n//\r\n// Unless required by applicable law or agreed to in writing, software\r\n// distributed under the License is distributed on an \"AS IS\" BASIS,\r\n// WITHOUT WARRANTIES OR CONDITIONS OF ANY KIND, either express or implied.\r\n// See the License for the specific language governing permissions and\r\n// limitations under the License.\r\n\r\npragma solidity 0.8.10;\r\n\r\n/// @title Book specifications and base methods\r\ncontract BookFactory {\r\n    /// @notice Struct of a book\r\n    /// @param bookId id of the book\r\n    /// @param prevBookId previously referenced book id\r\n    /// @param children number of books that had refered this book id\r\n    /// @param profit profit generated with this book\r\n    /// @param owner address of the owner of the book\r\n    struct Book {\r\n        uint256 bookId;\r\n        uint256 prevBookId;\r\n        uint256 children;\r\n        uint256 profit;\r\n        address payable owner;\r\n    }\r\n\r\n    /// @notice Array that store books\r\n    Book[] internal books;\r\n\r\n    /// @notice mapping to retrieve the books ids of an owner\r\n    mapping(address => uint256[]) internal booksByOwner;\r\n\r\n    /// @notice mapping to retrieve position of a book in the array \"books\" given his id\r\n    mapping(uint256 => uint256) internal positionById;\r\n\r\n    /// @notice Public getter for booksByOwner\r\n    /// @param owner owner of the books\r\n    /// @return array with ids of books owned by \"owner\"\r\n    function getBooksByOwner(address owner)\r\n        external\r\n        view\r\n        returns (uint256[] memory)\r\n    {\r\n        return booksByOwner[owner];\r\n    }\r\n\r\n    /// @notice Public getter for booksByOwner\r\n    /// @param bookId id of the searched book\r\n    /// @return book with the given id\r\n    function getBookById(uint256 bookId) external view returns (Book memory) {\r\n        require(\r\n            positionById[bookId] != 0 || bookId == 777777777777777,\r\n            \"Book with id provided is not found.\"\r\n        );\r\n        return books[positionById[bookId]];\r\n    }\r\n}\r\n",
  "sourcePath": "C:\\wamp64\\www\\P2\\contracts\\BookFactory.sol",
  "compiler": {
    "name": "solc",
    "version": "0.8.10+commit.fc410830.Emscripten.clang"
  },
  "schemaVersion": "3.4.3",
  "updatedAt": "2021-12-13T16:19:16.357Z",
  "devdoc": {
    "kind": "dev",
    "methods": {
      "getBookById(uint256)": {
        "params": {
          "bookId": "id of the searched book"
        },
        "returns": {
          "_0": "book with the given id"
        }
      },
      "getBooksByOwner(address)": {
        "params": {
          "owner": "owner of the books"
        },
        "returns": {
          "_0": "array with ids of books owned by \"owner\""
        }
      }
    },
    "title": "Book specifications and base methods",
    "version": 1
  },
  "userdoc": {
    "kind": "user",
    "methods": {
      "getBookById(uint256)": {
        "notice": "Public getter for booksByOwner"
      },
      "getBooksByOwner(address)": {
        "notice": "Public getter for booksByOwner"
      }
    },
    "version": 1
  }
}