{
  "contractName": "Management",
  "abi": [
    {
      "anonymous": false,
      "inputs": [
        {
          "indexed": true,
          "internalType": "address",
          "name": "previousOwner",
          "type": "address"
        },
        {
          "indexed": true,
          "internalType": "address",
          "name": "newOwner",
          "type": "address"
        }
      ],
      "name": "OwnershipTransferred",
      "type": "event"
    },
    {
      "anonymous": false,
      "inputs": [
        {
          "indexed": false,
          "internalType": "uint256",
          "name": "bookId",
          "type": "uint256"
        },
        {
          "indexed": false,
          "internalType": "uint256",
          "name": "prevBookId",
          "type": "uint256"
        },
        {
          "indexed": false,
          "internalType": "uint256",
          "name": "children",
          "type": "uint256"
        },
        {
          "indexed": false,
          "internalType": "uint256",
          "name": "profit",
          "type": "uint256"
        },
        {
          "indexed": false,
          "internalType": "address payable",
          "name": "owner",
          "type": "address"
        }
      ],
      "name": "newBook",
      "type": "event"
    },
    {
      "anonymous": false,
      "inputs": [
        {
          "indexed": false,
          "internalType": "uint256",
          "name": "profit",
          "type": "uint256"
        },
        {
          "indexed": false,
          "internalType": "address",
          "name": "guide",
          "type": "address"
        }
      ],
      "name": "profit",
      "type": "event"
    },
    {
      "anonymous": false,
      "inputs": [
        {
          "indexed": false,
          "internalType": "uint256",
          "name": "bookId",
          "type": "uint256"
        },
        {
          "indexed": false,
          "internalType": "uint256",
          "name": "prevBookId",
          "type": "uint256"
        },
        {
          "indexed": false,
          "internalType": "uint256",
          "name": "children",
          "type": "uint256"
        },
        {
          "indexed": false,
          "internalType": "uint256",
          "name": "profit",
          "type": "uint256"
        },
        {
          "indexed": false,
          "internalType": "address payable",
          "name": "owner",
          "type": "address"
        }
      ],
      "name": "updatedBook",
      "type": "event"
    },
    {
      "inputs": [],
      "name": "bookPrice",
      "outputs": [
        {
          "internalType": "uint256",
          "name": "",
          "type": "uint256"
        }
      ],
      "stateMutability": "view",
      "type": "function"
    },
    {
      "inputs": [],
      "name": "contractEnabled",
      "outputs": [
        {
          "internalType": "bool",
          "name": "",
          "type": "bool"
        }
      ],
      "stateMutability": "view",
      "type": "function"
    },
    {
      "inputs": [],
      "name": "maxRootedBook",
      "outputs": [
        {
          "internalType": "uint256",
          "name": "",
          "type": "uint256"
        }
      ],
      "stateMutability": "view",
      "type": "function"
    },
    {
      "inputs": [],
      "name": "owner",
      "outputs": [
        {
          "internalType": "address",
          "name": "",
          "type": "address"
        }
      ],
      "stateMutability": "view",
      "type": "function"
    },
    {
      "inputs": [],
      "name": "token",
      "outputs": [
        {
          "internalType": "contract ERC20",
          "name": "",
          "type": "address"
        }
      ],
      "stateMutability": "view",
      "type": "function"
    },
    {
      "inputs": [],
      "name": "tokenAddress",
      "outputs": [
        {
          "internalType": "address",
          "name": "",
          "type": "address"
        }
      ],
      "stateMutability": "view",
      "type": "function"
    },
    {
      "inputs": [
        {
          "internalType": "address",
          "name": "newOwner",
          "type": "address"
        }
      ],
      "name": "transferOwnership",
      "outputs": [],
      "stateMutability": "nonpayable",
      "type": "function"
    },
    {
      "inputs": [
        {
          "internalType": "address",
          "name": "_newTokenAddress",
          "type": "address"
        }
      ],
      "name": "changeTokenAddress",
      "outputs": [],
      "stateMutability": "nonpayable",
      "type": "function"
    },
    {
      "inputs": [
        {
          "internalType": "uint256",
          "name": "_newBookPrice",
          "type": "uint256"
        }
      ],
      "name": "changeBookPrice",
      "outputs": [],
      "stateMutability": "nonpayable",
      "type": "function"
    },
    {
      "inputs": [
        {
          "internalType": "uint256",
          "name": "_newMaxRootedBook",
          "type": "uint256"
        }
      ],
      "name": "changeMaxRootedBook",
      "outputs": [],
      "stateMutability": "nonpayable",
      "type": "function"
    },
    {
      "inputs": [
        {
          "internalType": "bool",
          "name": "_newContractEnabled",
          "type": "bool"
        }
      ],
      "name": "changeContractEnabled",
      "outputs": [],
      "stateMutability": "nonpayable",
      "type": "function"
    },
    {
      "inputs": [
        {
          "internalType": "uint256",
          "name": "_amount",
          "type": "uint256"
        }
      ],
      "name": "withdraw",
      "outputs": [],
      "stateMutability": "nonpayable",
      "type": "function"
    }
  ],
  "bytecode": "0x60806040526001600060146101000a81548160ff02191690831515021790555068056bc75e2d63100000600155603260025534801561003d57600080fd5b50336000806101000a81548173ffffffffffffffffffffffffffffffffffffffff021916908373ffffffffffffffffffffffffffffffffffffffff160217905550610e328061008d6000396000f3fe608060405234801561001057600080fd5b50600436106100b45760003560e01c80638da5cb5b116100715780638da5cb5b146101675780639d76ea5814610185578063c9cda91f146101a3578063dece9c7d146101bf578063f2fde38b146101db578063fc0c546a146101f7576100b4565b806317d832b7146100b95780632e1a7d4d146100d557806340e548c8146100f157806341b3a0d91461010f5780636e9164f41461012d5780638bbb4b4d1461014b575b600080fd5b6100d360048036038101906100ce919061096f565b610215565b005b6100ef60048036038101906100ea919061096f565b6102f2565b005b6100f9610424565b60405161010691906109ab565b60405180910390f35b61011761042a565b60405161012491906109e1565b60405180910390f35b61013561043d565b60405161014291906109ab565b60405180910390f35b61016560048036038101906101609190610a28565b610443565b005b61016f6104ee565b60405161017c9190610a96565b60405180910390f35b61018d610512565b60405161019a9190610a96565b60405180910390f35b6101bd60048036038101906101b89190610add565b610538565b005b6101d960048036038101906101d4919061096f565b6106bb565b005b6101f560048036038101906101f09190610add565b610753565b005b6101ff61090e565b60405161020c9190610b69565b60405180910390f35b60008054906101000a900473ffffffffffffffffffffffffffffffffffffffff1673ffffffffffffffffffffffffffffffffffffffff163373ffffffffffffffffffffffffffffffffffffffff16146102a3576040517f08c379a000000000000000000000000000000000000000000000000000000000815260040161029a90610be1565b60405180910390fd5b6000600154116102e8576040517f08c379a00000000000000000000000000000000000000000000000000000000081526004016102df90610c4d565b60405180910390fd5b8060018190555050565b60008054906101000a900473ffffffffffffffffffffffffffffffffffffffff1673ffffffffffffffffffffffffffffffffffffffff163373ffffffffffffffffffffffffffffffffffffffff1614610380576040517f08c379a000000000000000000000000000000000000000000000000000000000815260040161037790610be1565b60405180910390fd5b600460009054906101000a900473ffffffffffffffffffffffffffffffffffffffff1673ffffffffffffffffffffffffffffffffffffffff1663a9059cbb33836040518363ffffffff1660e01b81526004016103dd929190610c6d565b6020604051808303816000875af11580156103fc573d6000803e3d6000fd5b505050506040513d601f19601f820116820180604052508101906104209190610cab565b5050565b60025481565b600060149054906101000a900460ff1681565b60015481565b60008054906101000a900473ffffffffffffffffffffffffffffffffffffffff1673ffffffffffffffffffffffffffffffffffffffff163373ffffffffffffffffffffffffffffffffffffffff16146104d1576040517f08c379a00000000000000000000000000000000000000000000000000000000081526004016104c890610be1565b60405180910390fd5b80600060146101000a81548160ff02191690831515021790555050565b60008054906101000a900473ffffffffffffffffffffffffffffffffffffffff1681565b600360009054906101000a900473ffffffffffffffffffffffffffffffffffffffff1681565b60008054906101000a900473ffffffffffffffffffffffffffffffffffffffff1673ffffffffffffffffffffffffffffffffffffffff163373ffffffffffffffffffffffffffffffffffffffff16146105c6576040517f08c379a00000000000000000000000000000000000000000000000000000000081526004016105bd90610be1565b60405180910390fd5b600073ffffffffffffffffffffffffffffffffffffffff168173ffffffffffffffffffffffffffffffffffffffff161415610636576040517f08c379a000000000000000000000000000000000000000000000000000000000815260040161062d90610d4a565b60405180910390fd5b80600360006101000a81548173ffffffffffffffffffffffffffffffffffffffff021916908373ffffffffffffffffffffffffffffffffffffffff16021790555080600460006101000a81548173ffffffffffffffffffffffffffffffffffffffff021916908373ffffffffffffffffffffffffffffffffffffffff16021790555050565b60008054906101000a900473ffffffffffffffffffffffffffffffffffffffff1673ffffffffffffffffffffffffffffffffffffffff163373ffffffffffffffffffffffffffffffffffffffff1614610749576040517f08c379a000000000000000000000000000000000000000000000000000000000815260040161074090610be1565b60405180910390fd5b8060028190555050565b60008054906101000a900473ffffffffffffffffffffffffffffffffffffffff1673ffffffffffffffffffffffffffffffffffffffff163373ffffffffffffffffffffffffffffffffffffffff16146107e1576040517f08c379a00000000000000000000000000000000000000000000000000000000081526004016107d890610be1565b60405180910390fd5b600073ffffffffffffffffffffffffffffffffffffffff168173ffffffffffffffffffffffffffffffffffffffff161415610851576040517f08c379a000000000000000000000000000000000000000000000000000000000815260040161084890610ddc565b60405180910390fd5b8073ffffffffffffffffffffffffffffffffffffffff1660008054906101000a900473ffffffffffffffffffffffffffffffffffffffff1673ffffffffffffffffffffffffffffffffffffffff167f8be0079c531659141344cd1fd0a4f28419497f9722a3daafe3b4186f6b6457e060405160405180910390a3806000806101000a81548173ffffffffffffffffffffffffffffffffffffffff021916908373ffffffffffffffffffffffffffffffffffffffff16021790555050565b600460009054906101000a900473ffffffffffffffffffffffffffffffffffffffff1681565b600080fd5b6000819050919050565b61094c81610939565b811461095757600080fd5b50565b60008135905061096981610943565b92915050565b60006020828403121561098557610984610934565b5b60006109938482850161095a565b91505092915050565b6109a581610939565b82525050565b60006020820190506109c0600083018461099c565b92915050565b60008115159050919050565b6109db816109c6565b82525050565b60006020820190506109f660008301846109d2565b92915050565b610a05816109c6565b8114610a1057600080fd5b50565b600081359050610a22816109fc565b92915050565b600060208284031215610a3e57610a3d610934565b5b6000610a4c84828501610a13565b91505092915050565b600073ffffffffffffffffffffffffffffffffffffffff82169050919050565b6000610a8082610a55565b9050919050565b610a9081610a75565b82525050565b6000602082019050610aab6000830184610a87565b92915050565b610aba81610a75565b8114610ac557600080fd5b50565b600081359050610ad781610ab1565b92915050565b600060208284031215610af357610af2610934565b5b6000610b0184828501610ac8565b91505092915050565b6000819050919050565b6000610b2f610b2a610b2584610a55565b610b0a565b610a55565b9050919050565b6000610b4182610b14565b9050919050565b6000610b5382610b36565b9050919050565b610b6381610b48565b82525050565b6000602082019050610b7e6000830184610b5a565b92915050565b600082825260208201905092915050565b7f4d6573736167652073656e646572206973206e6f7420746865206f776e65722e600082015250565b6000610bcb602083610b84565b9150610bd682610b95565b602082019050919050565b60006020820190508181036000830152610bfa81610bbe565b9050919050565b7f4e657720626f6f6b20707269636520697320696e76616c696420283c3d203029600082015250565b6000610c37602083610b84565b9150610c4282610c01565b602082019050919050565b60006020820190508181036000830152610c6681610c2a565b9050919050565b6000604082019050610c826000830185610a87565b610c8f602083018461099c565b9392505050565b600081519050610ca5816109fc565b92915050565b600060208284031215610cc157610cc0610934565b5b6000610ccf84828501610c96565b91505092915050565b7f4e657720746f6b656e2773206164647265737320697320696e76616c6964202860008201527f3d20302900000000000000000000000000000000000000000000000000000000602082015250565b6000610d34602483610b84565b9150610d3f82610cd8565b604082019050919050565b60006020820190508181036000830152610d6381610d27565b9050919050565b7f4e6577206f776e65722773206164647265737320697320696e76616c6964202860008201527f3d20302900000000000000000000000000000000000000000000000000000000602082015250565b6000610dc6602483610b84565b9150610dd182610d6a565b604082019050919050565b60006020820190508181036000830152610df581610db9565b905091905056fea264697066735822122042ec473067bd4513a3626c53baac3f36a5a6b0bc11aaadc29baf0b85c4e0159664736f6c634300080a0033",
  "immutableReferences": {},
  "source": "// SPDX-License-Identifier: Apache License 2.0\r\n// Copyright 2021 Ra\r\n//\r\n// Licensed under the Apache License, Version 2.0 (the \"License\");\r\n// you may not use this file except in compliance with the License.\r\n// You may obtain a copy of the License at\r\n//\r\n// http://www.apache.org/licenses/LICENSE-2.0\r\n//\r\n// Unless required by applicable law or agreed to in writing, software\r\n// distributed under the License is distributed on an \"AS IS\" BASIS,\r\n// WITHOUT WARRANTIES OR CONDITIONS OF ANY KIND, either express or implied.\r\n// See the License for the specific language governing permissions and\r\n// limitations under the License.\r\n\r\npragma solidity 0.8.10;\r\n\r\nimport \"@openzeppelin/contracts/token/ERC20/ERC20.sol\";\r\nimport \"./Ownable.sol\";\r\nimport \"./Event.sol\";\r\n\r\n/// @title Contract with all functions need to manage contract\r\ncontract Management is Ownable, Event {\r\n    /// @notice Bool to block or not contract\r\n    /// @dev only used to disable old contract after a migration\r\n    bool public contractEnabled = true;\r\n\r\n    /// @notice Price of a book\r\n    uint256 public bookPrice = 10**20;\r\n\r\n    /// @notice Maximum number of rooted books (see whitepaper)\r\n    uint256 public maxRootedBook = 50;\r\n\r\n    /// @notice Address of the token used to buy books (see whitepaper)\r\n    address public tokenAddress;\r\n\r\n    /// @notice Token variable to call his methods\r\n    ERC20 public token;\r\n\r\n    /// @notice Change the address of the token contract\r\n    /// @param _newTokenAddress new token address\r\n    function changeTokenAddress(address _newTokenAddress) external onlyOwner {\r\n        require(\r\n            _newTokenAddress != address(0),\r\n            \"New token's address is invalid (= 0)\"\r\n        );\r\n        tokenAddress = _newTokenAddress;\r\n        token = ERC20(_newTokenAddress);\r\n    }\r\n\r\n    /// @notice Change the book price\r\n    /// @param _newBookPrice new price of the book\r\n    /// @dev only used if digits of the token change\r\n    function changeBookPrice(uint256 _newBookPrice) external onlyOwner {\r\n        require(bookPrice > 0, \"New book price is invalid (<= 0)\");\r\n        bookPrice = _newBookPrice;\r\n    }\r\n\r\n    /// @notice Change the limit of rooted books\r\n    /// @param _newMaxRootedBook new limit\r\n    function changeMaxRootedBook(uint256 _newMaxRootedBook) external onlyOwner {\r\n        maxRootedBook = _newMaxRootedBook;\r\n    }\r\n\r\n    /// @notice Change contract enabling\r\n    /// @param _newContractEnabled new enabling value\r\n    function changeContractEnabled(bool _newContractEnabled)\r\n        external\r\n        onlyOwner\r\n    {\r\n        contractEnabled = _newContractEnabled;\r\n    }\r\n\r\n    /// @notice Modifier to disable functions if contract is disabled\r\n    modifier ContractEnabled() {\r\n        require(\r\n            contractEnabled == true,\r\n            \"This contract is not enabled, check if it have been migrated.\"\r\n        );\r\n        _;\r\n    }\r\n\r\n    /// @notice Transfer funds from contract address to owner wallet\r\n    function withdraw(uint256 _amount) external onlyOwner {\r\n        token.transfer(msg.sender, _amount);\r\n    }\r\n}\r\n",
  "sourcePath": "C:\\wamp64\\www\\P2\\contracts\\Management.sol",
  "compiler": {
    "name": "solc",
    "version": "0.8.10+commit.fc410830.Emscripten.clang"
  },
  "schemaVersion": "3.4.3",
  "updatedAt": "2021-12-13T16:19:16.396Z",
  "devdoc": {
    "kind": "dev",
    "methods": {
      "changeBookPrice(uint256)": {
        "details": "only used if digits of the token change",
        "params": {
          "_newBookPrice": "new price of the book"
        }
      },
      "changeContractEnabled(bool)": {
        "params": {
          "_newContractEnabled": "new enabling value"
        }
      },
      "changeMaxRootedBook(uint256)": {
        "params": {
          "_newMaxRootedBook": "new limit"
        }
      },
      "changeTokenAddress(address)": {
        "params": {
          "_newTokenAddress": "new token address"
        }
      },
      "transferOwnership(address)": {
        "params": {
          "newOwner": "address of the new owner of the contract"
        }
      }
    },
    "stateVariables": {
      "contractEnabled": {
        "details": "only used to disable old contract after a migration"
      }
    },
    "title": "Contract with all functions need to manage contract",
    "version": 1
  },
  "userdoc": {
    "events": {
      "OwnershipTransferred(address,address)": {
        "notice": "Event emited when ownership is transferred"
      },
      "newBook(uint256,uint256,uint256,uint256,address)": {
        "notice": "Event emitted during a book creation"
      },
      "profit(uint256,address)": {
        "notice": "Event emitted when profit is added to user's wallet"
      },
      "updatedBook(uint256,uint256,uint256,uint256,address)": {
        "notice": "Event emitted when a book is updated (update of child/profit)"
      }
    },
    "kind": "user",
    "methods": {
      "bookPrice()": {
        "notice": "Price of a book"
      },
      "changeBookPrice(uint256)": {
        "notice": "Change the book price"
      },
      "changeContractEnabled(bool)": {
        "notice": "Change contract enabling"
      },
      "changeMaxRootedBook(uint256)": {
        "notice": "Change the limit of rooted books"
      },
      "changeTokenAddress(address)": {
        "notice": "Change the address of the token contract"
      },
      "contractEnabled()": {
        "notice": "Bool to block or not contract"
      },
      "maxRootedBook()": {
        "notice": "Maximum number of rooted books (see whitepaper)"
      },
      "owner()": {
        "notice": "address of the owner of the contract"
      },
      "token()": {
        "notice": "Token variable to call his methods"
      },
      "tokenAddress()": {
        "notice": "Address of the token used to buy books (see whitepaper)"
      },
      "transferOwnership(address)": {
        "notice": "Allows the current owner to transfer ownership of the contract to a new owner"
      },
      "withdraw(uint256)": {
        "notice": "Transfer funds from contract address to owner wallet"
      }
    },
    "version": 1
  }
}