{
  "contractName": "Pyra",
  "abi": [
    {
      "anonymous": false,
      "inputs": [
        {
          "indexed": true,
          "internalType": "address",
          "name": "previousOwner",
          "type": "address"
        },
        {
          "indexed": true,
          "internalType": "address",
          "name": "newOwner",
          "type": "address"
        }
      ],
      "name": "OwnershipTransferred",
      "type": "event"
    },
    {
      "anonymous": false,
      "inputs": [
        {
          "indexed": false,
          "internalType": "uint256",
          "name": "bookId",
          "type": "uint256"
        },
        {
          "indexed": false,
          "internalType": "uint256",
          "name": "prevBookId",
          "type": "uint256"
        },
        {
          "indexed": false,
          "internalType": "uint256",
          "name": "children",
          "type": "uint256"
        },
        {
          "indexed": false,
          "internalType": "uint256",
          "name": "profit",
          "type": "uint256"
        },
        {
          "indexed": false,
          "internalType": "address payable",
          "name": "owner",
          "type": "address"
        }
      ],
      "name": "newBook",
      "type": "event"
    },
    {
      "anonymous": false,
      "inputs": [
        {
          "indexed": false,
          "internalType": "uint256",
          "name": "profit",
          "type": "uint256"
        },
        {
          "indexed": false,
          "internalType": "address",
          "name": "guide",
          "type": "address"
        }
      ],
      "name": "profit",
      "type": "event"
    },
    {
      "anonymous": false,
      "inputs": [
        {
          "indexed": false,
          "internalType": "uint256",
          "name": "bookId",
          "type": "uint256"
        },
        {
          "indexed": false,
          "internalType": "uint256",
          "name": "prevBookId",
          "type": "uint256"
        },
        {
          "indexed": false,
          "internalType": "uint256",
          "name": "children",
          "type": "uint256"
        },
        {
          "indexed": false,
          "internalType": "uint256",
          "name": "profit",
          "type": "uint256"
        },
        {
          "indexed": false,
          "internalType": "address payable",
          "name": "owner",
          "type": "address"
        }
      ],
      "name": "updatedBook",
      "type": "event"
    },
    {
      "inputs": [],
      "name": "bookPrice",
      "outputs": [
        {
          "internalType": "uint256",
          "name": "",
          "type": "uint256"
        }
      ],
      "stateMutability": "view",
      "type": "function",
      "constant": true
    },
    {
      "inputs": [
        {
          "internalType": "uint256",
          "name": "_newBookPrice",
          "type": "uint256"
        }
      ],
      "name": "changeBookPrice",
      "outputs": [],
      "stateMutability": "nonpayable",
      "type": "function"
    },
    {
      "inputs": [
        {
          "internalType": "bool",
          "name": "_newContractEnabled",
          "type": "bool"
        }
      ],
      "name": "changeContractEnabled",
      "outputs": [],
      "stateMutability": "nonpayable",
      "type": "function"
    },
    {
      "inputs": [
        {
          "internalType": "uint256",
          "name": "_newMaxRootedBook",
          "type": "uint256"
        }
      ],
      "name": "changeMaxRootedBook",
      "outputs": [],
      "stateMutability": "nonpayable",
      "type": "function"
    },
    {
      "inputs": [
        {
          "internalType": "address",
          "name": "_newTokenAddress",
          "type": "address"
        }
      ],
      "name": "changeTokenAddress",
      "outputs": [],
      "stateMutability": "nonpayable",
      "type": "function"
    },
    {
      "inputs": [],
      "name": "contractEnabled",
      "outputs": [
        {
          "internalType": "bool",
          "name": "",
          "type": "bool"
        }
      ],
      "stateMutability": "view",
      "type": "function",
      "constant": true
    },
    {
      "inputs": [
        {
          "internalType": "uint256",
          "name": "bookId",
          "type": "uint256"
        }
      ],
      "name": "getBookById",
      "outputs": [
        {
          "components": [
            {
              "internalType": "uint256",
              "name": "bookId",
              "type": "uint256"
            },
            {
              "internalType": "uint256",
              "name": "prevBookId",
              "type": "uint256"
            },
            {
              "internalType": "uint256",
              "name": "children",
              "type": "uint256"
            },
            {
              "internalType": "uint256",
              "name": "profit",
              "type": "uint256"
            },
            {
              "internalType": "address payable",
              "name": "owner",
              "type": "address"
            }
          ],
          "internalType": "struct BookFactory.Book",
          "name": "",
          "type": "tuple"
        }
      ],
      "stateMutability": "view",
      "type": "function",
      "constant": true
    },
    {
      "inputs": [],
      "name": "getBookCount",
      "outputs": [
        {
          "internalType": "uint256",
          "name": "",
          "type": "uint256"
        }
      ],
      "stateMutability": "view",
      "type": "function",
      "constant": true
    },
    {
      "inputs": [
        {
          "internalType": "address",
          "name": "owner",
          "type": "address"
        }
      ],
      "name": "getBooksByOwner",
      "outputs": [
        {
          "internalType": "uint256[]",
          "name": "",
          "type": "uint256[]"
        }
      ],
      "stateMutability": "view",
      "type": "function",
      "constant": true
    },
    {
      "inputs": [],
      "name": "maxRootedBook",
      "outputs": [
        {
          "internalType": "uint256",
          "name": "",
          "type": "uint256"
        }
      ],
      "stateMutability": "view",
      "type": "function",
      "constant": true
    },
    {
      "inputs": [],
      "name": "owner",
      "outputs": [
        {
          "internalType": "address",
          "name": "",
          "type": "address"
        }
      ],
      "stateMutability": "view",
      "type": "function",
      "constant": true
    },
    {
      "inputs": [],
      "name": "token",
      "outputs": [
        {
          "internalType": "contract ERC20",
          "name": "",
          "type": "address"
        }
      ],
      "stateMutability": "view",
      "type": "function",
      "constant": true
    },
    {
      "inputs": [],
      "name": "tokenAddress",
      "outputs": [
        {
          "internalType": "address",
          "name": "",
          "type": "address"
        }
      ],
      "stateMutability": "view",
      "type": "function",
      "constant": true
    },
    {
      "inputs": [
        {
          "internalType": "address",
          "name": "newOwner",
          "type": "address"
        }
      ],
      "name": "transferOwnership",
      "outputs": [],
      "stateMutability": "nonpayable",
      "type": "function"
    },
    {
      "inputs": [
        {
          "internalType": "uint256",
          "name": "_amount",
          "type": "uint256"
        }
      ],
      "name": "withdraw",
      "outputs": [],
      "stateMutability": "nonpayable",
      "type": "function"
    },
    {
      "inputs": [
        {
          "internalType": "address payable",
          "name": "_rootGuide",
          "type": "address"
        }
      ],
      "name": "createRootBook",
      "outputs": [],
      "stateMutability": "nonpayable",
      "type": "function"
    },
    {
      "inputs": [
        {
          "internalType": "uint256",
          "name": "_prevBookId",
          "type": "uint256"
        },
        {
          "internalType": "uint256",
          "name": "_quantity",
          "type": "uint256"
        }
      ],
      "name": "buyBook",
      "outputs": [],
      "stateMutability": "payable",
      "type": "function",
      "payable": true
    },
    {
      "inputs": [],
      "name": "saveBooks",
      "outputs": [
        {
          "components": [
            {
              "internalType": "uint256",
              "name": "bookId",
              "type": "uint256"
            },
            {
              "internalType": "uint256",
              "name": "prevBookId",
              "type": "uint256"
            },
            {
              "internalType": "uint256",
              "name": "children",
              "type": "uint256"
            },
            {
              "internalType": "uint256",
              "name": "profit",
              "type": "uint256"
            },
            {
              "internalType": "address payable",
              "name": "owner",
              "type": "address"
            }
          ],
          "internalType": "struct BookFactory.Book[]",
          "name": "",
          "type": "tuple[]"
        }
      ],
      "stateMutability": "view",
      "type": "function",
      "constant": true
    }
  ],
  "bytecode": "0x60806040526001600460006101000a81548160ff02191690831515021790555068056bc75e2d631000006005556032600655600060095560405180610260016040528061025861ffff16815260200160c861ffff168152602001603261ffff168152602001601461ffff168152602001600f61ffff168152602001600e61ffff168152602001600d61ffff168152602001600c61ffff168152602001600b61ffff168152602001600a61ffff168152602001600961ffff168152602001600861ffff168152602001600761ffff168152602001600661ffff168152602001600561ffff168152602001600461ffff168152602001600361ffff168152602001600261ffff168152602001600161ffff16815250600a9060136200012492919062000179565b503480156200013257600080fd5b50336000806101000a81548173ffffffffffffffffffffffffffffffffffffffff021916908373ffffffffffffffffffffffffffffffffffffffff16021790555062000249565b82805482825590600052602060002090600f01601090048101928215620002175791602002820160005b83821115620001e557835183826101000a81548161ffff021916908361ffff1602179055509260200192600201602081600101049283019260010302620001a3565b8015620002155782816101000a81549061ffff0219169055600201602081600101049283019260010302620001e5565b505b5090506200022691906200022a565b5090565b5b80821115620002455760008160009055506001016200022b565b5090565b6131b780620002596000396000f3fe6080604052600436106101085760003560e01c80637c9c34f511610095578063c9cda91f11610064578063c9cda91f14610349578063d73e0c8914610372578063dece9c7d1461039d578063f2fde38b146103c6578063fc0c546a146103ef57610108565b80637c9c34f51461029f5780638bbb4b4d146102ca5780638da5cb5b146102f35780639d76ea581461031e57610108565b806340e548c8116100dc57806340e548c8146101a4578063418b79ab146101cf57806341b3a0d91461020c5780635ff47114146102375780636e9164f41461027457610108565b8062f8ec4d1461010d57806317d832b7146101365780632e1a7d4d1461015f5780633af8c2d514610188575b600080fd5b34801561011957600080fd5b50610134600480360381019061012f9190611fe5565b61041a565b005b34801561014257600080fd5b5061015d60048036038101906101589190612048565b610743565b005b34801561016b57600080fd5b5061018660048036038101906101819190612048565b610820565b005b6101a2600480360381019061019d9190612075565b610952565b005b3480156101b057600080fd5b506101b9610d2c565b6040516101c691906120c4565b60405180910390f35b3480156101db57600080fd5b506101f660048036038101906101f19190612048565b610d32565b6040516102039190612165565b60405180910390f35b34801561021857600080fd5b50610221610e67565b60405161022e919061219b565b60405180910390f35b34801561024357600080fd5b5061025e600480360381019061025991906121f4565b610e7a565b60405161026b91906122d0565b60405180910390f35b34801561028057600080fd5b50610289610f11565b60405161029691906120c4565b60405180910390f35b3480156102ab57600080fd5b506102b4610f17565b6040516102c19190612409565b60405180910390f35b3480156102d657600080fd5b506102f160048036038101906102ec9190612457565b611082565b005b3480156102ff57600080fd5b5061030861112d565b6040516103159190612493565b60405180910390f35b34801561032a57600080fd5b50610333611151565b6040516103409190612493565b60405180910390f35b34801561035557600080fd5b50610370600480360381019061036b91906121f4565b611177565b005b34801561037e57600080fd5b506103876112fa565b60405161039491906120c4565b60405180910390f35b3480156103a957600080fd5b506103c460048036038101906103bf9190612048565b611307565b005b3480156103d257600080fd5b506103ed60048036038101906103e891906121f4565b61139f565b005b3480156103fb57600080fd5b5061040461155a565b604051610411919061250d565b60405180910390f35b60008054906101000a900473ffffffffffffffffffffffffffffffffffffffff1673ffffffffffffffffffffffffffffffffffffffff163373ffffffffffffffffffffffffffffffffffffffff16146104a8576040517f08c379a000000000000000000000000000000000000000000000000000000000815260040161049f90612585565b60405180910390fd5b600073ffffffffffffffffffffffffffffffffffffffff168173ffffffffffffffffffffffffffffffffffffffff161415610518576040517f08c379a000000000000000000000000000000000000000000000000000000000815260040161050f90612617565b60405180910390fd5b60016040518060a001604052806602c36280289c7181526020016602c36280289c71815260200160008152602001600081526020018373ffffffffffffffffffffffffffffffffffffffff1681525090806001815401808255809150506001900390600052602060002090600502016000909190919091506000820151816000015560208201518160010155604082015181600201556060820151816003015560808201518160040160006101000a81548173ffffffffffffffffffffffffffffffffffffffff021916908373ffffffffffffffffffffffffffffffffffffffff1602179055505050600260008273ffffffffffffffffffffffffffffffffffffffff1673ffffffffffffffffffffffffffffffffffffffff1681526020019081526020016000206602c36280289c7190806001815401808255809150506001900390600052602060002001600090919091909150556000600360006602c36280289c718152602001908152602001600020819055507f265ca4dab933198ddce9d398d00c7ecf9e6bdec5f4f3e89f5f6181edd8a9f7cb60016000815481106106c4576106c3612637565b5b90600052602060002090600502016000015460016000815481106106eb576106ea612637565b5b906000526020600020906005020160010154600160008154811061071257610711612637565b5b9060005260206000209060050201600201546000856040516107389594939291906126b0565b60405180910390a150565b60008054906101000a900473ffffffffffffffffffffffffffffffffffffffff1673ffffffffffffffffffffffffffffffffffffffff163373ffffffffffffffffffffffffffffffffffffffff16146107d1576040517f08c379a00000000000000000000000000000000000000000000000000000000081526004016107c890612585565b60405180910390fd5b600060055411610816576040517f08c379a000000000000000000000000000000000000000000000000000000000815260040161080d9061274f565b60405180910390fd5b8060058190555050565b60008054906101000a900473ffffffffffffffffffffffffffffffffffffffff1673ffffffffffffffffffffffffffffffffffffffff163373ffffffffffffffffffffffffffffffffffffffff16146108ae576040517f08c379a00000000000000000000000000000000000000000000000000000000081526004016108a590612585565b60405180910390fd5b600860009054906101000a900473ffffffffffffffffffffffffffffffffffffffff1673ffffffffffffffffffffffffffffffffffffffff1663a9059cbb33836040518363ffffffff1660e01b815260040161090b92919061276f565b6020604051808303816000875af115801561092a573d6000803e3d6000fd5b505050506040513d601f19601f8201168201806040525081019061094e91906127ad565b5050565b60011515600460009054906101000a900460ff161515146109a8576040517f08c379a000000000000000000000000000000000000000000000000000000000815260040161099f9061284c565b60405180910390fd5b60008210156109ec576040517f08c379a00000000000000000000000000000000000000000000000000000000081526004016109e3906128de565b60405180910390fd5b60008111610a2f576040517f08c379a0000000000000000000000000000000000000000000000000000000008152600401610a269061294a565b60405180910390fd5b60006003600084815260200190815260200160002054141580610a5857506602c36280289c7182145b610a97576040517f08c379a0000000000000000000000000000000000000000000000000000000008152600401610a8e906129dc565b60405180910390fd5b6602c36280289c71821415610b1d57600654816001600081548110610abf57610abe612637565b5b906000526020600020906005020160020154610adb9190612a2b565b1115610b1c576040517f08c379a0000000000000000000000000000000000000000000000000000000008152600401610b1390612af3565b60405180910390fd5b5b80600554610b2b9190612b13565b600860009054906101000a900473ffffffffffffffffffffffffffffffffffffffff1673ffffffffffffffffffffffffffffffffffffffff1663dd62ed3e33306040518363ffffffff1660e01b8152600401610b88929190612b6d565b602060405180830381865afa158015610ba5573d6000803e3d6000fd5b505050506040513d601f19601f82011682018060405250810190610bc99190612bab565b1015610c0a576040517f08c379a0000000000000000000000000000000000000000000000000000000008152600401610c0190612c4a565b60405180910390fd5b600860009054906101000a900473ffffffffffffffffffffffffffffffffffffffff1673ffffffffffffffffffffffffffffffffffffffff166323b872dd333084600554610c589190612b13565b6040518463ffffffff1660e01b8152600401610c7693929190612c6a565b6020604051808303816000875af1158015610c95573d6000803e3d6000fd5b505050506040513d601f19601f82011682018060405250810190610cb991906127ad565b610cf8576040517f08c379a0000000000000000000000000000000000000000000000000000000008152600401610cef90612ced565b60405180910390fd5b610d028282611580565b60005b81811015610d2757610d1683611a21565b80610d2090612d0d565b9050610d05565b505050565b60065481565b610d3a611f3d565b60006003600084815260200190815260200160002054141580610d6357506602c36280289c7182145b610da2576040517f08c379a0000000000000000000000000000000000000000000000000000000008152600401610d9990612dc8565b60405180910390fd5b6001600360008481526020019081526020016000205481548110610dc957610dc8612637565b5b90600052602060002090600502016040518060a0016040529081600082015481526020016001820154815260200160028201548152602001600382015481526020016004820160009054906101000a900473ffffffffffffffffffffffffffffffffffffffff1673ffffffffffffffffffffffffffffffffffffffff1673ffffffffffffffffffffffffffffffffffffffff16815250509050919050565b600460009054906101000a900460ff1681565b6060600260008373ffffffffffffffffffffffffffffffffffffffff1673ffffffffffffffffffffffffffffffffffffffff168152602001908152602001600020805480602002602001604051908101604052809291908181526020018280548015610f0557602002820191906000526020600020905b815481526020019060010190808311610ef1575b50505050509050919050565b60055481565b606060008054906101000a900473ffffffffffffffffffffffffffffffffffffffff1673ffffffffffffffffffffffffffffffffffffffff163373ffffffffffffffffffffffffffffffffffffffff1614610fa7576040517f08c379a0000000000000000000000000000000000000000000000000000000008152600401610f9e90612585565b60405180910390fd5b6001805480602002602001604051908101604052809291908181526020016000905b8282101561107957838290600052602060002090600502016040518060a0016040529081600082015481526020016001820154815260200160028201548152602001600382015481526020016004820160009054906101000a900473ffffffffffffffffffffffffffffffffffffffff1673ffffffffffffffffffffffffffffffffffffffff1673ffffffffffffffffffffffffffffffffffffffff168152505081526020019060010190610fc9565b50505050905090565b60008054906101000a900473ffffffffffffffffffffffffffffffffffffffff1673ffffffffffffffffffffffffffffffffffffffff163373ffffffffffffffffffffffffffffffffffffffff1614611110576040517f08c379a000000000000000000000000000000000000000000000000000000000815260040161110790612585565b60405180910390fd5b80600460006101000a81548160ff02191690831515021790555050565b60008054906101000a900473ffffffffffffffffffffffffffffffffffffffff1681565b600760009054906101000a900473ffffffffffffffffffffffffffffffffffffffff1681565b60008054906101000a900473ffffffffffffffffffffffffffffffffffffffff1673ffffffffffffffffffffffffffffffffffffffff163373ffffffffffffffffffffffffffffffffffffffff1614611205576040517f08c379a00000000000000000000000000000000000000000000000000000000081526004016111fc90612585565b60405180910390fd5b600073ffffffffffffffffffffffffffffffffffffffff168173ffffffffffffffffffffffffffffffffffffffff161415611275576040517f08c379a000000000000000000000000000000000000000000000000000000000815260040161126c90612e5a565b60405180910390fd5b80600760006101000a81548173ffffffffffffffffffffffffffffffffffffffff021916908373ffffffffffffffffffffffffffffffffffffffff16021790555080600860006101000a81548173ffffffffffffffffffffffffffffffffffffffff021916908373ffffffffffffffffffffffffffffffffffffffff16021790555050565b6000600180549050905090565b60008054906101000a900473ffffffffffffffffffffffffffffffffffffffff1673ffffffffffffffffffffffffffffffffffffffff163373ffffffffffffffffffffffffffffffffffffffff1614611395576040517f08c379a000000000000000000000000000000000000000000000000000000000815260040161138c90612585565b60405180910390fd5b8060068190555050565b60008054906101000a900473ffffffffffffffffffffffffffffffffffffffff1673ffffffffffffffffffffffffffffffffffffffff163373ffffffffffffffffffffffffffffffffffffffff161461142d576040517f08c379a000000000000000000000000000000000000000000000000000000000815260040161142490612585565b60405180910390fd5b600073ffffffffffffffffffffffffffffffffffffffff168173ffffffffffffffffffffffffffffffffffffffff16141561149d576040517f08c379a000000000000000000000000000000000000000000000000000000000815260040161149490612eec565b60405180910390fd5b8073ffffffffffffffffffffffffffffffffffffffff1660008054906101000a900473ffffffffffffffffffffffffffffffffffffffff1673ffffffffffffffffffffffffffffffffffffffff167f8be0079c531659141344cd1fd0a4f28419497f9722a3daafe3b4186f6b6457e060405160405180910390a3806000806101000a81548173ffffffffffffffffffffffffffffffffffffffff021916908373ffffffffffffffffffffffffffffffffffffffff16021790555050565b600860009054906101000a900473ffffffffffffffffffffffffffffffffffffffff1681565b600060646063836005546115949190612b13565b61159e9190612b13565b6115a89190612f3b565b9050600060016003600086815260200190815260200160002054815481106115d3576115d2612637565b5b90600052602060002090600502016040518060a0016040529081600082015481526020016001820154815260200160028201548152602001600382015481526020016004820160009054906101000a900473ffffffffffffffffffffffffffffffffffffffff1673ffffffffffffffffffffffffffffffffffffffff1673ffffffffffffffffffffffffffffffffffffffff1681525050905060008160800151905060005b60138161ffff161015611a185760006103e886600a8461ffff16815481106116a3576116a2612637565b5b90600052602060002090601091828204019190066002029054906101000a900461ffff1661ffff166005546116d89190612b13565b6116e29190612b13565b6116ec9190612f3b565b9050600860009054906101000a900473ffffffffffffffffffffffffffffffffffffffff1673ffffffffffffffffffffffffffffffffffffffff1663a9059cbb84836040518363ffffffff1660e01b815260040161174b929190612f8d565b6020604051808303816000875af115801561176a573d6000803e3d6000fd5b505050506040513d601f19601f8201168201806040525081019061178e91906127ad565b6117cd576040517f08c379a00000000000000000000000000000000000000000000000000000000081526004016117c490613002565b60405180910390fd5b80856117d99190613022565b94508060016003600087600001518152602001908152602001600020548154811061180757611806612637565b5b906000526020600020906005020160030160008282546118279190612a2b565b925050819055507f9f370889d8ccb177ffbf1b8b545f4594f84fb896312d4063361fb08a72747ae6818460405161185f929190613056565b60405180910390a16602c36280289c71846000015114801561188b57506602c36280289c718460200151145b1561193b57600860009054906101000a900473ffffffffffffffffffffffffffffffffffffffff1673ffffffffffffffffffffffffffffffffffffffff1663a9059cbb33876040518363ffffffff1660e01b81526004016118ed92919061276f565b6020604051808303816000875af115801561190c573d6000803e3d6000fd5b505050506040513d601f19601f8201168201806040525081019061193091906127ad565b505050505050611a1d565b60016003600086602001518152602001908152602001600020548154811061196657611965612637565b5b90600052602060002090600502016040518060a0016040529081600082015481526020016001820154815260200160028201548152602001600382015481526020016004820160009054906101000a900473ffffffffffffffffffffffffffffffffffffffff1673ffffffffffffffffffffffffffffffffffffffff1673ffffffffffffffffffffffffffffffffffffffff16815250509350836080015192505080611a119061308d565b9050611678565b505050505b5050565b6000611a2b611e6d565b9050600180549050600360008381526020019081526020016000208190555060016040518060a0016040528083815260200184815260200160008152602001600081526020013373ffffffffffffffffffffffffffffffffffffffff1681525090806001815401808255809150506001900390600052602060002090600502016000909190919091506000820151816000015560208201518160010155604082015181600201556060820151816003015560808201518160040160006101000a81548173ffffffffffffffffffffffffffffffffffffffff021916908373ffffffffffffffffffffffffffffffffffffffff1602179055505050600180600360008581526020019081526020016000205481548110611b4d57611b4c612637565b5b906000526020600020906005020160020154611b699190612a2b565b6001600360008581526020019081526020016000205481548110611b9057611b8f612637565b5b906000526020600020906005020160020181905550600260003373ffffffffffffffffffffffffffffffffffffffff1673ffffffffffffffffffffffffffffffffffffffff1681526020019081526020016000208190806001815401808255809150506001900390600052602060002001600090919091909150557f265ca4dab933198ddce9d398d00c7ecf9e6bdec5f4f3e89f5f6181edd8a9f7cb816001600360008581526020019081526020016000205481548110611c5457611c53612637565b5b9060005260206000209060050201600101546001600360008681526020019081526020016000205481548110611c8d57611c8c612637565b5b9060005260206000209060050201600201546001600360008781526020019081526020016000205481548110611cc657611cc5612637565b5b90600052602060002090600502016003015433604051611cea9594939291906130b8565b60405180910390a17fa5b6df11500cc0f807113f7c0ae2d1a7df60a6e242024058c8540492e21d4f806001600360008581526020019081526020016000205481548110611d3a57611d39612637565b5b9060005260206000209060050201600001546001600360008681526020019081526020016000205481548110611d7357611d72612637565b5b9060005260206000209060050201600101546001600360008781526020019081526020016000205481548110611dac57611dab612637565b5b9060005260206000209060050201600201546001600360008881526020019081526020016000205481548110611de557611de4612637565b5b9060005260206000209060050201600301546001600360008981526020019081526020016000205481548110611e1e57611e1d612637565b5b906000526020600020906005020160040160009054906101000a900473ffffffffffffffffffffffffffffffffffffffff16604051611e619594939291906130b8565b60405180910390a15050565b600060096000815480929190611e8290612d0d565b9190505550600066038d7ea4c6800042336009546001600081548110611eab57611eaa612637565b5b906000526020600020906005020160020154604051602001611ed0949392919061310b565b6040516020818303038152906040528051906020012060001c611ef39190613150565b90506000600360008381526020019081526020016000205414158015611f2057506602c36280289c718114155b15611f3557611f2d611e6d565b915050611f3a565b809150505b90565b6040518060a0016040528060008152602001600081526020016000815260200160008152602001600073ffffffffffffffffffffffffffffffffffffffff1681525090565b600080fd5b600073ffffffffffffffffffffffffffffffffffffffff82169050919050565b6000611fb282611f87565b9050919050565b611fc281611fa7565b8114611fcd57600080fd5b50565b600081359050611fdf81611fb9565b92915050565b600060208284031215611ffb57611ffa611f82565b5b600061200984828501611fd0565b91505092915050565b6000819050919050565b61202581612012565b811461203057600080fd5b50565b6000813590506120428161201c565b92915050565b60006020828403121561205e5761205d611f82565b5b600061206c84828501612033565b91505092915050565b6000806040838503121561208c5761208b611f82565b5b600061209a85828601612033565b92505060206120ab85828601612033565b9150509250929050565b6120be81612012565b82525050565b60006020820190506120d960008301846120b5565b92915050565b6120e881612012565b82525050565b6120f781611fa7565b82525050565b60a08201600082015161211360008501826120df565b50602082015161212660208501826120df565b50604082015161213960408501826120df565b50606082015161214c60608501826120df565b50608082015161215f60808501826120ee565b50505050565b600060a08201905061217a60008301846120fd565b92915050565b60008115159050919050565b61219581612180565b82525050565b60006020820190506121b0600083018461218c565b92915050565b60006121c182611f87565b9050919050565b6121d1816121b6565b81146121dc57600080fd5b50565b6000813590506121ee816121c8565b92915050565b60006020828403121561220a57612209611f82565b5b6000612218848285016121df565b91505092915050565b600081519050919050565b600082825260208201905092915050565b6000819050602082019050919050565b600061225983836120df565b60208301905092915050565b6000602082019050919050565b600061227d82612221565b612287818561222c565b93506122928361223d565b8060005b838110156122c35781516122aa888261224d565b97506122b583612265565b925050600181019050612296565b5085935050505092915050565b600060208201905081810360008301526122ea8184612272565b905092915050565b600081519050919050565b600082825260208201905092915050565b6000819050602082019050919050565b60a08201600082015161233460008501826120df565b50602082015161234760208501826120df565b50604082015161235a60408501826120df565b50606082015161236d60608501826120df565b50608082015161238060808501826120ee565b50505050565b6000612392838361231e565b60a08301905092915050565b6000602082019050919050565b60006123b6826122f2565b6123c081856122fd565b93506123cb8361230e565b8060005b838110156123fc5781516123e38882612386565b97506123ee8361239e565b9250506001810190506123cf565b5085935050505092915050565b6000602082019050818103600083015261242381846123ab565b905092915050565b61243481612180565b811461243f57600080fd5b50565b6000813590506124518161242b565b92915050565b60006020828403121561246d5761246c611f82565b5b600061247b84828501612442565b91505092915050565b61248d816121b6565b82525050565b60006020820190506124a86000830184612484565b92915050565b6000819050919050565b60006124d36124ce6124c984611f87565b6124ae565b611f87565b9050919050565b60006124e5826124b8565b9050919050565b60006124f7826124da565b9050919050565b612507816124ec565b82525050565b600060208201905061252260008301846124fe565b92915050565b600082825260208201905092915050565b7f4d6573736167652073656e646572206973206e6f7420746865206f776e65722e600082015250565b600061256f602083612528565b915061257a82612539565b602082019050919050565b6000602082019050818103600083015261259e81612562565b9050919050565b7f41646472657373206f6620726f6f7420677569646520697320696e76616c696460008201527f20283d2030292e00000000000000000000000000000000000000000000000000602082015250565b6000612601602783612528565b915061260c826125a5565b604082019050919050565b60006020820190508181036000830152612630816125f4565b9050919050565b7f4e487b7100000000000000000000000000000000000000000000000000000000600052603260045260246000fd5b6000819050919050565b600061268b61268661268184612666565b6124ae565b612012565b9050919050565b61269b81612670565b82525050565b6126aa81611fa7565b82525050565b600060a0820190506126c560008301886120b5565b6126d260208301876120b5565b6126df60408301866120b5565b6126ec6060830185612692565b6126f960808301846126a1565b9695505050505050565b7f4e657720626f6f6b20707269636520697320696e76616c696420283c3d203029600082015250565b6000612739602083612528565b915061274482612703565b602082019050919050565b600060208201905081810360008301526127688161272c565b9050919050565b60006040820190506127846000830185612484565b61279160208301846120b5565b9392505050565b6000815190506127a78161242b565b92915050565b6000602082840312156127c3576127c2611f82565b5b60006127d184828501612798565b91505092915050565b7f5468697320636f6e7472616374206973206e6f7420656e61626c65642c20636860008201527f65636b2069662069742068617665206265656e206d696772617465642e000000602082015250565b6000612836603d83612528565b9150612841826127da565b604082019050919050565b6000602082019050818103600083015261286581612829565b9050919050565b7f50726576696f757320626f6f6b20696420697320696e76616c696420283c203060008201527f292e000000000000000000000000000000000000000000000000000000000000602082015250565b60006128c8602283612528565b91506128d38261286c565b604082019050919050565b600060208201905081810360008301526128f7816128bb565b9050919050565b7f5175616e7469747920697320696e76616c696420283c3d2030292e0000000000600082015250565b6000612934601b83612528565b915061293f826128fe565b602082019050919050565b6000602082019050818103600083015261296381612927565b9050919050565b7f50726576696f757320626f6f6b20776974682069642070726f7669646564206960008201527f73206e6f7420666f756e642e0000000000000000000000000000000000000000602082015250565b60006129c6602c83612528565b91506129d18261296a565b604082019050919050565b600060208201905081810360008301526129f5816129b9565b9050919050565b7f4e487b7100000000000000000000000000000000000000000000000000000000600052601160045260246000fd5b6000612a3682612012565b9150612a4183612012565b9250827fffffffffffffffffffffffffffffffffffffffffffffffffffffffffffffffff03821115612a7657612a756129fc565b5b828201905092915050565b7f526f6f74656420626f6f6b7320617265206e6f742079657420617661696c616260008201527f6c652e0000000000000000000000000000000000000000000000000000000000602082015250565b6000612add602383612528565b9150612ae882612a81565b604082019050919050565b60006020820190508181036000830152612b0c81612ad0565b9050919050565b6000612b1e82612012565b9150612b2983612012565b9250817fffffffffffffffffffffffffffffffffffffffffffffffffffffffffffffffff0483118215151615612b6257612b616129fc565b5b828202905092915050565b6000604082019050612b826000830185612484565b612b8f6020830184612484565b9392505050565b600081519050612ba58161201c565b92915050565b600060208284031215612bc157612bc0611f82565b5b6000612bcf84828501612b96565b91505092915050565b7f4e6f7420656e6f7567746820666f756e64732061726520616c6c6f776564207460008201527f6f20636f6e74726163742e000000000000000000000000000000000000000000602082015250565b6000612c34602b83612528565b9150612c3f82612bd8565b604082019050919050565b60006020820190508181036000830152612c6381612c27565b9050919050565b6000606082019050612c7f6000830186612484565b612c8c6020830185612484565b612c9960408301846120b5565b949350505050565b7f556e61626c6520746f2070617920636f6e747261637400000000000000000000600082015250565b6000612cd7601683612528565b9150612ce282612ca1565b602082019050919050565b60006020820190508181036000830152612d0681612cca565b9050919050565b6000612d1882612012565b91507fffffffffffffffffffffffffffffffffffffffffffffffffffffffffffffffff821415612d4b57612d4a6129fc565b5b600182019050919050565b7f426f6f6b20776974682069642070726f7669646564206973206e6f7420666f7560008201527f6e642e0000000000000000000000000000000000000000000000000000000000602082015250565b6000612db2602383612528565b9150612dbd82612d56565b604082019050919050565b60006020820190508181036000830152612de181612da5565b9050919050565b7f4e657720746f6b656e2773206164647265737320697320696e76616c6964202860008201527f3d20302900000000000000000000000000000000000000000000000000000000602082015250565b6000612e44602483612528565b9150612e4f82612de8565b604082019050919050565b60006020820190508181036000830152612e7381612e37565b9050919050565b7f4e6577206f776e65722773206164647265737320697320696e76616c6964202860008201527f3d20302900000000000000000000000000000000000000000000000000000000602082015250565b6000612ed6602483612528565b9150612ee182612e7a565b604082019050919050565b60006020820190508181036000830152612f0581612ec9565b9050919050565b7f4e487b7100000000000000000000000000000000000000000000000000000000600052601260045260246000fd5b6000612f4682612012565b9150612f5183612012565b925082612f6157612f60612f0c565b5b828204905092915050565b6000612f77826124da565b9050919050565b612f8781612f6c565b82525050565b6000604082019050612fa26000830185612f7e565b612faf60208301846120b5565b9392505050565b7f556e61626c6520746f2070617920616c6c206775696465730000000000000000600082015250565b6000612fec601883612528565b9150612ff782612fb6565b602082019050919050565b6000602082019050818103600083015261301b81612fdf565b9050919050565b600061302d82612012565b915061303883612012565b92508282101561304b5761304a6129fc565b5b828203905092915050565b600060408201905061306b60008301856120b5565b6130786020830184612f7e565b9392505050565b600061ffff82169050919050565b60006130988261307f565b915061ffff8214156130ad576130ac6129fc565b5b600182019050919050565b600060a0820190506130cd60008301886120b5565b6130da60208301876120b5565b6130e760408301866120b5565b6130f460608301856120b5565b61310160808301846126a1565b9695505050505050565b600060808201905061312060008301876120b5565b61312d6020830186612484565b61313a60408301856120b5565b61314760608301846120b5565b95945050505050565b600061315b82612012565b915061316683612012565b92508261317657613175612f0c565b5b82820690509291505056fea264697066735822122056888f7becc1ecfabd52089d7d345523217d9b32f321113da12794f246edaca664736f6c634300080a0033",
  "immutableReferences": {},
  "source": "// SPDX-License-Identifier: Apache License 2.0\r\n// Copyright 2021 Ra\r\n//\r\n// Licensed under the Apache License, Version 2.0 (the \"License\");\r\n// you may not use this file except in compliance with the License.\r\n// You may obtain a copy of the License at\r\n//\r\n// http://www.apache.org/licenses/LICENSE-2.0\r\n//\r\n// Unless required by applicable law or agreed to in writing, software\r\n// distributed under the License is distributed on an \"AS IS\" BASIS,\r\n// WITHOUT WARRANTIES OR CONDITIONS OF ANY KIND, either express or implied.\r\n// See the License for the specific language governing permissions and\r\n// limitations under the License.\r\n\r\npragma solidity 0.8.10;\r\n\r\nimport \"./Management.sol\";\r\nimport \"./Utils.sol\";\r\n\r\n/// @title Main contract of Pyra\r\ncontract Pyra is Management, Utils {\r\n    \r\n    /// @notice distribution between guides\r\n    uint16[] private commission = [\r\n        600,\r\n        200,\r\n        50,\r\n        20,\r\n        15,\r\n        14,\r\n        13,\r\n        12,\r\n        11,\r\n        10,\r\n        9,\r\n        8,\r\n        7,\r\n        6,\r\n        5,\r\n        4,\r\n        3,\r\n        2,\r\n        1\r\n    ];\r\n\r\n    /// @notice Create root book (Ra's book)\r\n    /// @param _rootGuide address of root book owner\r\n    /// @dev Id of root book is always 777777777777777\r\n    function createRootBook(address payable _rootGuide) external onlyOwner {\r\n        require(\r\n            _rootGuide != address(0),\r\n            \"Address of root guide is invalid (= 0).\"\r\n        );\r\n\r\n        books.push(Book(777777777777777, 777777777777777, 0, 0, _rootGuide));\r\n        booksByOwner[_rootGuide].push(777777777777777);\r\n        positionById[777777777777777] = 0;\r\n\r\n        emit newBook(\r\n            books[0].bookId,\r\n            books[0].prevBookId,\r\n            books[0].children,\r\n            0,\r\n            _rootGuide\r\n        );\r\n    }\r\n\r\n    /// @notice Create a book buy by msg.sender\r\n    /// @param _prevBookId id entred by user\r\n    /// @param _quantity quantity of book bought\r\n    /// @dev This function interract with the token contract setup in Management.sol\r\n    function buyBook(uint256 _prevBookId, uint256 _quantity)\r\n        external\r\n        payable\r\n        ContractEnabled\r\n    {\r\n        require(_prevBookId >= 0, \"Previous book id is invalid (< 0).\");\r\n        require(_quantity > 0, \"Quantity is invalid (<= 0).\");\r\n        require(\r\n            positionById[_prevBookId] != 0 || _prevBookId == 777777777777777,\r\n            \"Previous book with id provided is not found.\"\r\n        );\r\n\r\n        if (_prevBookId == 777777777777777) {\r\n            require(\r\n                books[0].children + _quantity <= maxRootedBook,\r\n                \"Rooted books are not yet available.\"\r\n            );\r\n        }\r\n\r\n        require(\r\n            token.allowance(msg.sender, address(this)) >= bookPrice * _quantity,\r\n            \"Not enougth founds are allowed to contract.\"\r\n        );\r\n\r\n        require(\r\n            token.transferFrom(\r\n                msg.sender,\r\n                address(this),\r\n                bookPrice * _quantity\r\n            ),\r\n            \"Unable to pay contract\"\r\n        );\r\n\r\n        transfertToGuides(_prevBookId, _quantity);\r\n\r\n        for (uint256 i = 0; i < _quantity; ++i) {\r\n            createNewBook(_prevBookId);\r\n        }\r\n    }\r\n\r\n    /// @notice Distribute investisment between guides\r\n    /// @param _bookId id of the first book that need profit\r\n    /// @param _quantity quantity of book bought\r\n    /// @dev stop if root book is reached\r\n    function transfertToGuides(uint256 _bookId, uint256 _quantity) private {\r\n        uint256 pool = (bookPrice * _quantity * 99) / 100;\r\n\r\n        Book memory guideBook = books[positionById[_bookId]];\r\n        address payable guide = guideBook.owner;\r\n\r\n        for (uint16 i = 0; i < 19; ++i) {\r\n            uint256 guideCommission = (bookPrice * commission[i] * _quantity) /\r\n                1000;\r\n\r\n            require(\r\n                token.transfer(guide, guideCommission),\r\n                \"Unable to pay all guides\"\r\n            );\r\n            pool -= guideCommission;\r\n            books[positionById[guideBook.bookId]].profit += guideCommission;\r\n            emit profit(guideCommission, guide);\r\n\r\n            if (\r\n                guideBook.bookId == 777777777777777 &&\r\n                guideBook.prevBookId == 777777777777777\r\n            ) {\r\n                token.transfer(msg.sender, pool);\r\n                return;\r\n            }\r\n            guideBook = books[positionById[guideBook.prevBookId]];\r\n            guide = guideBook.owner;\r\n        }\r\n    }\r\n\r\n    /// @notice Create a new book\r\n    /// @param _prevBookId id of the previous book\r\n    /// @dev use events to track creation\r\n    function createNewBook(uint256 _prevBookId) private {\r\n        uint256 bookId = generateRandomId();\r\n        positionById[bookId] = books.length;\r\n        books.push(Book(bookId, _prevBookId, 0, 0, payable(msg.sender)));\r\n\r\n        books[positionById[_prevBookId]].children =\r\n            books[positionById[_prevBookId]].children +\r\n            1;\r\n        booksByOwner[msg.sender].push(bookId);\r\n\r\n        emit newBook(\r\n            bookId,\r\n            books[positionById[bookId]].prevBookId,\r\n            books[positionById[bookId]].children,\r\n            books[positionById[bookId]].profit,\r\n            payable(msg.sender)\r\n        );\r\n\r\n        emit updatedBook(\r\n            books[positionById[_prevBookId]].bookId,\r\n            books[positionById[_prevBookId]].prevBookId,\r\n            books[positionById[_prevBookId]].children,\r\n            books[positionById[_prevBookId]].profit,\r\n            books[positionById[_prevBookId]].owner\r\n        );\r\n    }\r\n\r\n    /// @notice Save books for possible migration\r\n    /// @return all books created\r\n    /// @dev Only created books are needed to make a migration\r\n    function saveBooks() external view onlyOwner returns (Book[] memory) {\r\n        return books;\r\n    }\r\n}\r\n",
  "sourcePath": "C:\\wamp64\\www\\P2\\contracts\\Pyra.sol",
  "compiler": {
    "name": "solc",
    "version": "0.8.10+commit.fc410830.Emscripten.clang"
  },
  "schemaVersion": "3.4.3",
  "updatedAt": "2021-12-13T16:19:44.897Z",
  "networkType": "ethereum",
  "devdoc": {
    "kind": "dev",
    "methods": {
      "buyBook(uint256,uint256)": {
        "details": "This function interract with the token contract setup in Management.sol",
        "params": {
          "_prevBookId": "id entred by user",
          "_quantity": "quantity of book bought"
        }
      },
      "changeBookPrice(uint256)": {
        "details": "only used if digits of the token change",
        "params": {
          "_newBookPrice": "new price of the book"
        }
      },
      "changeContractEnabled(bool)": {
        "params": {
          "_newContractEnabled": "new enabling value"
        }
      },
      "changeMaxRootedBook(uint256)": {
        "params": {
          "_newMaxRootedBook": "new limit"
        }
      },
      "changeTokenAddress(address)": {
        "params": {
          "_newTokenAddress": "new token address"
        }
      },
      "createRootBook(address)": {
        "details": "Id of root book is always 777777777777777",
        "params": {
          "_rootGuide": "address of root book owner"
        }
      },
      "getBookById(uint256)": {
        "params": {
          "bookId": "id of the searched book"
        },
        "returns": {
          "_0": "book with the given id"
        }
      },
      "getBookCount()": {
        "returns": {
          "_0": "number of books created"
        }
      },
      "getBooksByOwner(address)": {
        "params": {
          "owner": "owner of the books"
        },
        "returns": {
          "_0": "array with ids of books owned by \"owner\""
        }
      },
      "saveBooks()": {
        "details": "Only created books are needed to make a migration",
        "returns": {
          "_0": "all books created"
        }
      },
      "transferOwnership(address)": {
        "params": {
          "newOwner": "address of the new owner of the contract"
        }
      }
    },
    "title": "Main contract of Pyra",
    "version": 1
  },
  "userdoc": {
    "events": {
      "OwnershipTransferred(address,address)": {
        "notice": "Event emited when ownership is transferred"
      },
      "newBook(uint256,uint256,uint256,uint256,address)": {
        "notice": "Event emitted during a book creation"
      },
      "profit(uint256,address)": {
        "notice": "Event emitted when profit is added to user's wallet"
      },
      "updatedBook(uint256,uint256,uint256,uint256,address)": {
        "notice": "Event emitted when a book is updated (update of child/profit)"
      }
    },
    "kind": "user",
    "methods": {
      "bookPrice()": {
        "notice": "Price of a book"
      },
      "buyBook(uint256,uint256)": {
        "notice": "Create a book buy by msg.sender"
      },
      "changeBookPrice(uint256)": {
        "notice": "Change the book price"
      },
      "changeContractEnabled(bool)": {
        "notice": "Change contract enabling"
      },
      "changeMaxRootedBook(uint256)": {
        "notice": "Change the limit of rooted books"
      },
      "changeTokenAddress(address)": {
        "notice": "Change the address of the token contract"
      },
      "contractEnabled()": {
        "notice": "Bool to block or not contract"
      },
      "createRootBook(address)": {
        "notice": "Create root book (Ra's book)"
      },
      "getBookById(uint256)": {
        "notice": "Public getter for booksByOwner"
      },
      "getBookCount()": {
        "notice": "Getter for numbers of books created"
      },
      "getBooksByOwner(address)": {
        "notice": "Public getter for booksByOwner"
      },
      "maxRootedBook()": {
        "notice": "Maximum number of rooted books (see whitepaper)"
      },
      "owner()": {
        "notice": "address of the owner of the contract"
      },
      "saveBooks()": {
        "notice": "Save books for possible migration"
      },
      "token()": {
        "notice": "Token variable to call his methods"
      },
      "tokenAddress()": {
        "notice": "Address of the token used to buy books (see whitepaper)"
      },
      "transferOwnership(address)": {
        "notice": "Allows the current owner to transfer ownership of the contract to a new owner"
      },
      "withdraw(uint256)": {
        "notice": "Transfer funds from contract address to owner wallet"
      }
    },
    "version": 1
  }
}